{
  "contractName": "Faucet",
  "abi": [
    {
      "inputs": [
        {
          "internalType": "address",
          "name": "",
          "type": "address"
        }
      ],
      "name": "funders",
      "outputs": [
        {
          "internalType": "bool",
          "name": "",
          "type": "bool"
        }
      ],
      "stateMutability": "view",
      "type": "function",
      "constant": true
    },
    {
      "inputs": [
        {
          "internalType": "uint256",
          "name": "",
          "type": "uint256"
        }
      ],
      "name": "lutFunders",
      "outputs": [
        {
          "internalType": "address",
          "name": "",
          "type": "address"
        }
      ],
      "stateMutability": "view",
      "type": "function",
      "constant": true
    },
    {
      "inputs": [],
      "name": "numOfFunders",
      "outputs": [
        {
          "internalType": "uint256",
          "name": "",
          "type": "uint256"
        }
      ],
      "stateMutability": "view",
      "type": "function",
      "constant": true
    },
    {
      "inputs": [],
      "name": "owner",
      "outputs": [
        {
          "internalType": "address",
          "name": "",
          "type": "address"
        }
      ],
      "stateMutability": "view",
      "type": "function",
      "constant": true
    },
    {
      "stateMutability": "payable",
      "type": "receive",
      "payable": true
    },
    {
      "inputs": [],
      "name": "emitLog",
      "outputs": [
        {
          "internalType": "bytes32",
          "name": "",
          "type": "bytes32"
        }
      ],
      "stateMutability": "pure",
      "type": "function",
      "constant": true
    },
    {
      "inputs": [],
      "name": "getAllFunders",
      "outputs": [
        {
          "internalType": "address[]",
          "name": "",
          "type": "address[]"
        }
      ],
      "stateMutability": "view",
      "type": "function",
      "constant": true
    },
    {
      "inputs": [],
      "name": "addFunds",
      "outputs": [],
      "stateMutability": "payable",
      "type": "function",
      "payable": true
    },
    {
      "inputs": [
        {
          "internalType": "uint256",
          "name": "withdrawAmount",
          "type": "uint256"
        }
      ],
      "name": "withdraw",
      "outputs": [],
      "stateMutability": "nonpayable",
      "type": "function"
    }
  ],
  "bytecode": "0x608060405234801561001057600080fd5b50336000806101000a81548173ffffffffffffffffffffffffffffffffffffffff021916908373ffffffffffffffffffffffffffffffffffffffff160217905550610979806100606000396000f3fe60806040526004361061007f5760003560e01c80638da5cb5b1161004e5780638da5cb5b14610159578063a26759cb14610184578063af7f2c9b1461018e578063f42c13bf146101b957610086565b8063031b36771461008b5780631f8947ea146100c85780632e1a7d4d146101055780636fbbb55d1461012e57610086565b3661008657005b600080fd5b34801561009757600080fd5b506100b260048036038101906100ad919061059d565b6101e4565b6040516100bf91906105e5565b60405180910390f35b3480156100d457600080fd5b506100ef60048036038101906100ea9190610636565b610204565b6040516100fc9190610672565b60405180910390f35b34801561011157600080fd5b5061012c60048036038101906101279190610636565b610237565b005b34801561013a57600080fd5b506101436102ce565b604051610150919061074b565b60405180910390f35b34801561016557600080fd5b5061016e6103c8565b60405161017b9190610672565b60405180910390f35b61018c6103ec565b005b34801561019a57600080fd5b506101a361050c565b6040516101b0919061077c565b60405180910390f35b3480156101c557600080fd5b506101ce610512565b6040516101db91906107b0565b60405180910390f35b60026020528060005260406000206000915054906101000a900460ff1681565b60036020528060005260406000206000915054906101000a900473ffffffffffffffffffffffffffffffffffffffff1681565b80670de0b6b3a7640000811115610283576040517f08c379a000000000000000000000000000000000000000000000000000000000815260040161027a9061084e565b60405180910390fd5b3373ffffffffffffffffffffffffffffffffffffffff166108fc839081150290604051600060405180830381858888f193505050501580156102c9573d6000803e3d6000fd5b505050565b6060600060015467ffffffffffffffff8111156102ee576102ed61086e565b5b60405190808252806020026020018201604052801561031c5781602001602082028036833780820191505090505b50905060005b6001548110156103c0576003600082815260200190815260200160002060009054906101000a900473ffffffffffffffffffffffffffffffffffffffff168282815181106103735761037261089d565b5b602002602001019073ffffffffffffffffffffffffffffffffffffffff16908173ffffffffffffffffffffffffffffffffffffffff168152505080806103b8906108fb565b915050610322565b508091505090565b60008054906101000a900473ffffffffffffffffffffffffffffffffffffffff1681565b6000339050600260008273ffffffffffffffffffffffffffffffffffffffff1673ffffffffffffffffffffffffffffffffffffffff16815260200190815260200160002060009054906101000a900460ff1661050957600060016000815480929190610457906108fb565b9190505590506001600260008473ffffffffffffffffffffffffffffffffffffffff1673ffffffffffffffffffffffffffffffffffffffff16815260200190815260200160002060006101000a81548160ff021916908315150217905550816003600083815260200190815260200160002060006101000a81548173ffffffffffffffffffffffffffffffffffffffff021916908373ffffffffffffffffffffffffffffffffffffffff160217905550505b50565b60015481565b60007f48656c6c6f20576f726c64000000000000000000000000000000000000000000905090565b600080fd5b600073ffffffffffffffffffffffffffffffffffffffff82169050919050565b600061056a8261053f565b9050919050565b61057a8161055f565b811461058557600080fd5b50565b60008135905061059781610571565b92915050565b6000602082840312156105b3576105b261053a565b5b60006105c184828501610588565b91505092915050565b60008115159050919050565b6105df816105ca565b82525050565b60006020820190506105fa60008301846105d6565b92915050565b6000819050919050565b61061381610600565b811461061e57600080fd5b50565b6000813590506106308161060a565b92915050565b60006020828403121561064c5761064b61053a565b5b600061065a84828501610621565b91505092915050565b61066c8161055f565b82525050565b60006020820190506106876000830184610663565b92915050565b600081519050919050565b600082825260208201905092915050565b6000819050602082019050919050565b6106c28161055f565b82525050565b60006106d483836106b9565b60208301905092915050565b6000602082019050919050565b60006106f88261068d565b6107028185610698565b935061070d836106a9565b8060005b8381101561073e57815161072588826106c8565b9750610730836106e0565b925050600181019050610711565b5085935050505092915050565b6000602082019050818103600083015261076581846106ed565b905092915050565b61077681610600565b82525050565b6000602082019050610791600083018461076d565b92915050565b6000819050919050565b6107aa81610797565b82525050565b60006020820190506107c560008301846107a1565b92915050565b600082825260208201905092915050565b7f63616e6e6f74207769746864726177206d6f7265207468616e202e312065746860008201527f6572000000000000000000000000000000000000000000000000000000000000602082015250565b60006108386022836107cb565b9150610843826107dc565b604082019050919050565b600060208201905081810360008301526108678161082b565b9050919050565b7f4e487b7100000000000000000000000000000000000000000000000000000000600052604160045260246000fd5b7f4e487b7100000000000000000000000000000000000000000000000000000000600052603260045260246000fd5b7f4e487b7100000000000000000000000000000000000000000000000000000000600052601160045260246000fd5b600061090682610600565b91507fffffffffffffffffffffffffffffffffffffffffffffffffffffffffffffffff8203610938576109376108cc565b5b60018201905091905056fea2646970667358221220a7fce88da6c064526f013a97bd1e532618df0a57a5792bbfb0b0059b88c73f3f64736f6c634300080d0033",
  "immutableReferences": {},
  "source": "// SPDX-License-Identifier: MIT\npragma solidity ^0.8.13;\n\nimport \"./Owned.sol\";\nimport \"./Logger.sol\";\nimport \"./IFaucet.sol\";\n\ncontract Faucet is Owned, Logger, IFaucet {\n    uint256 public numOfFunders;\n\n    mapping(address => bool) public funders;\n    mapping(uint256 => address) public lutFunders;\n\n    modifier limitWithdraw(uint256 withdrawAmount) {\n        require(\n            withdrawAmount <= 1000000000000000000,\n            \"cannot withdraw more than .1 ether\"\n        );\n        _;\n    }\n\n    receive() external payable {}\n\n    function emitLog() external pure override returns (bytes32) {\n        return \"Hello World\";\n    }\n\n    function getAllFunders() external view returns (address[] memory) {\n        address[] memory _funders = new address[](numOfFunders);\n        for (uint256 i = 0; i < numOfFunders; i++) {\n            _funders[i] = lutFunders[i];\n        }\n        return _funders;\n    }\n\n    function addFunds() external payable override {\n        address funder = msg.sender;\n\n        if (!funders[funder]) {\n            uint256 index = numOfFunders++;\n            funders[funder] = true;\n            lutFunders[index] = funder;\n        }\n    }\n\n    function withdraw(uint256 withdrawAmount)\n        external\n        override\n        limitWithdraw(withdrawAmount)\n    {\n        payable(msg.sender).transfer(withdrawAmount);\n    }\n}\n",
  "sourcePath": "/home/aby/code/ethereum/nextjs/faucet/contracts/FaucetContract.sol",
  "compiler": {
    "name": "solc",
    "version": "0.8.13+commit.abaa5c0e.Emscripten.clang"
  },
  "schemaVersion": "3.4.11",
  "updatedAt": "2023-01-10T02:42:34.671Z",
  "networkType": "ethereum",
  "devdoc": {
    "kind": "dev",
    "methods": {},
    "version": 1
  },
  "userdoc": {
    "kind": "user",
    "methods": {},
    "version": 1
  }
}